{
  "contractName": "Betting",
  "abi": [
    {
      "inputs": [],
      "payable": false,
      "stateMutability": "nonpayable",
      "type": "constructor"
    },
    {
      "payable": true,
      "stateMutability": "payable",
      "type": "fallback"
    },
    {
      "constant": true,
      "inputs": [],
      "name": "minimumBet",
      "outputs": [
        {
          "internalType": "uint256",
          "name": "",
          "type": "uint256"
        }
      ],
      "payable": false,
      "stateMutability": "view",
      "type": "function"
    },
    {
      "constant": true,
      "inputs": [],
      "name": "owner",
      "outputs": [
        {
          "internalType": "address payable",
          "name": "",
          "type": "address"
        }
      ],
      "payable": false,
      "stateMutability": "view",
      "type": "function"
    },
    {
      "constant": true,
      "inputs": [
        {
          "internalType": "address",
          "name": "",
          "type": "address"
        }
      ],
      "name": "playerInfo",
      "outputs": [
        {
          "internalType": "uint256",
          "name": "amountBet",
          "type": "uint256"
        },
        {
          "internalType": "uint16",
          "name": "teamSelected",
          "type": "uint16"
        }
      ],
      "payable": false,
      "stateMutability": "view",
      "type": "function"
    },
    {
      "constant": true,
      "inputs": [
        {
          "internalType": "uint256",
          "name": "",
          "type": "uint256"
        }
      ],
      "name": "players",
      "outputs": [
        {
          "internalType": "address payable",
          "name": "",
          "type": "address"
        }
      ],
      "payable": false,
      "stateMutability": "view",
      "type": "function"
    },
    {
      "constant": true,
      "inputs": [],
      "name": "totalBetsOne",
      "outputs": [
        {
          "internalType": "uint256",
          "name": "",
          "type": "uint256"
        }
      ],
      "payable": false,
      "stateMutability": "view",
      "type": "function"
    },
    {
      "constant": true,
      "inputs": [],
      "name": "totalBetsTwo",
      "outputs": [
        {
          "internalType": "uint256",
          "name": "",
          "type": "uint256"
        }
      ],
      "payable": false,
      "stateMutability": "view",
      "type": "function"
    },
    {
      "constant": false,
      "inputs": [],
      "name": "kill",
      "outputs": [],
      "payable": false,
      "stateMutability": "nonpayable",
      "type": "function"
    },
    {
      "constant": true,
      "inputs": [
        {
          "internalType": "address payable",
          "name": "player",
          "type": "address"
        }
      ],
      "name": "checkPlayerExists",
      "outputs": [
        {
          "internalType": "bool",
          "name": "",
          "type": "bool"
        }
      ],
      "payable": false,
      "stateMutability": "view",
      "type": "function"
    },
    {
      "constant": false,
      "inputs": [
        {
          "internalType": "uint8",
          "name": "_teamSelected",
          "type": "uint8"
        }
      ],
      "name": "bet",
      "outputs": [],
      "payable": true,
      "stateMutability": "payable",
      "type": "function"
    },
    {
      "constant": false,
      "inputs": [
        {
          "internalType": "uint16",
          "name": "teamWinner",
          "type": "uint16"
        }
      ],
      "name": "distributePrizes",
      "outputs": [],
      "payable": false,
      "stateMutability": "nonpayable",
      "type": "function"
    },
    {
      "constant": true,
      "inputs": [],
      "name": "getAmountOfBetOne",
      "outputs": [
        {
          "internalType": "uint256",
          "name": "",
          "type": "uint256"
        }
      ],
      "payable": false,
      "stateMutability": "view",
      "type": "function"
    },
    {
      "constant": true,
      "inputs": [],
      "name": "getAmountOfBetTwo",
      "outputs": [
        {
          "internalType": "uint256",
          "name": "",
          "type": "uint256"
        }
      ],
      "payable": false,
      "stateMutability": "view",
      "type": "function"
    }
  ],
  "bytecode": "0x608060405234801561001057600080fd5b50336000806101000a81548173ffffffffffffffffffffffffffffffffffffffff021916908373ffffffffffffffffffffffffffffffffffffffff160217905550655af3107a4000600181905550610abe8061006d6000396000f3fe6080604052600436106100a75760003560e01c80637904f688116100645780637904f6881461021e5780638afadeb51461025d5780638da5cb5b14610288578063c38a8afd146102df578063d0821b0e1461030a578063f71d96cb1461033b576100a7565b80634081d916146100a957806341c0e1b51461011257806341c3a71e146101295780634b114691146101545780635bf6b19f146101c85780636cca8e4f146101f3575b005b3480156100b557600080fd5b506100f8600480360360208110156100cc57600080fd5b81019080803573ffffffffffffffffffffffffffffffffffffffff1690602001909291905050506103b6565b604051808215151515815260200191505060405180910390f35b34801561011e57600080fd5b50610127610458565b005b34801561013557600080fd5b5061013e6104e9565b6040518082815260200191505060405180910390f35b34801561016057600080fd5b506101a36004803603602081101561017757600080fd5b81019080803573ffffffffffffffffffffffffffffffffffffffff1690602001909291905050506104f3565b604051808381526020018261ffff1661ffff1681526020019250505060405180910390f35b3480156101d457600080fd5b506101dd610525565b6040518082815260200191505060405180910390f35b3480156101ff57600080fd5b5061020861052b565b6040518082815260200191505060405180910390f35b34801561022a57600080fd5b5061025b6004803603602081101561024157600080fd5b81019080803561ffff169060200190929190505050610535565b005b34801561026957600080fd5b50610272610843565b6040518082815260200191505060405180910390f35b34801561029457600080fd5b5061029d610849565b604051808273ffffffffffffffffffffffffffffffffffffffff1673ffffffffffffffffffffffffffffffffffffffff16815260200191505060405180910390f35b3480156102eb57600080fd5b506102f461086e565b6040518082815260200191505060405180910390f35b6103396004803603602081101561032057600080fd5b81019080803560ff169060200190929190505050610874565b005b34801561034757600080fd5b506103746004803603602081101561035e57600080fd5b81019080803590602001909291905050506109d8565b604051808273ffffffffffffffffffffffffffffffffffffffff1673ffffffffffffffffffffffffffffffffffffffff16815260200191505060405180910390f35b600080600090505b60048054905081101561044d578273ffffffffffffffffffffffffffffffffffffffff16600482815481106103ef57fe5b9060005260206000200160009054906101000a900473ffffffffffffffffffffffffffffffffffffffff1673ffffffffffffffffffffffffffffffffffffffff161415610440576001915050610453565b80806001019150506103be565b50600090505b919050565b6000809054906101000a900473ffffffffffffffffffffffffffffffffffffffff1673ffffffffffffffffffffffffffffffffffffffff163373ffffffffffffffffffffffffffffffffffffffff1614156104e7576000809054906101000a900473ffffffffffffffffffffffffffffffffffffffff1673ffffffffffffffffffffffffffffffffffffffff16ff5b565b6000600254905090565b60056020528060005260406000206000915090508060000154908060010160009054906101000a900461ffff16905082565b60035481565b6000600354905090565b61053d610a14565b600080905060008090506000809050600080600080600090505b600480549050811015610659576004818154811061057157fe5b9060005260206000200160009054906101000a900473ffffffffffffffffffffffffffffffffffffffff1691508861ffff16600560008473ffffffffffffffffffffffffffffffffffffffff1673ffffffffffffffffffffffffffffffffffffffff16815260200190815260200160002060010160009054906101000a900461ffff1661ffff16141561064c578188886103e8811061060c57fe5b602002019073ffffffffffffffffffffffffffffffffffffffff16908173ffffffffffffffffffffffffffffffffffffffff168152505086806001019750505b8080600101915050610557565b5060018861ffff1614156106765760035494506002549350610681565b600254945060035493505b60008090505b868110156107b157600073ffffffffffffffffffffffffffffffffffffffff1688826103e881106106b457fe5b602002015173ffffffffffffffffffffffffffffffffffffffff16146106e95787816103e881106106e157fe5b602002015193505b600560008573ffffffffffffffffffffffffffffffffffffffff1673ffffffffffffffffffffffffffffffffffffffff16815260200190815260200160002060000154925087816103e8811061073b57fe5b602002015173ffffffffffffffffffffffffffffffffffffffff166108fc612710876127108a028161076957fe5b046127100186028161077757fe5b049081150290604051600060405180830381858888f193505050501580156107a3573d6000803e3d6000fd5b508080600101915050610687565b50600560008273ffffffffffffffffffffffffffffffffffffffff1673ffffffffffffffffffffffffffffffffffffffff1681526020019081526020016000206000808201600090556001820160006101000a81549061ffff0219169055505060006004816108209190610a38565b506000945060009350600060028190555060006003819055505050505050505050565b60025481565b6000809054906101000a900473ffffffffffffffffffffffffffffffffffffffff1681565b60015481565b61087d336103b6565b1561088757600080fd5b60015434101561089657600080fd5b34600560003373ffffffffffffffffffffffffffffffffffffffff1673ffffffffffffffffffffffffffffffffffffffff168152602001908152602001600020600001819055508060ff16600560003373ffffffffffffffffffffffffffffffffffffffff1673ffffffffffffffffffffffffffffffffffffffff16815260200190815260200160002060010160006101000a81548161ffff021916908361ffff16021790555060043390806001815401808255809150509060018203906000526020600020016000909192909190916101000a81548173ffffffffffffffffffffffffffffffffffffffff021916908373ffffffffffffffffffffffffffffffffffffffff1602179055505060018160ff1614156109c457346002600082825401925050819055506109d5565b346003600082825401925050819055505b50565b600481815481106109e557fe5b906000526020600020016000915054906101000a900473ffffffffffffffffffffffffffffffffffffffff1681565b60405180617d0001604052806103e890602082028038833980820191505090505090565b815481835581811115610a5f57818360005260206000209182019101610a5e9190610a64565b5b505050565b610a8691905b80821115610a82576000816000905550600101610a6a565b5090565b9056fea265627a7a72315820d545e186e6b53101fdeefcda01145cdfe49f7cfdbdcb3bb1e8797f540fd00d2f64736f6c63430005100032",
  "source": "pragma solidity >=0.4.22 <0.8.0;\n\n\ncontract Betting {\n   address payable public owner;\n   uint256 public minimumBet;\n   uint256 public totalBetsOne;\n   uint256 public totalBetsTwo;\n   address payable[] public players;\n\n   struct Player {\n      uint256 amountBet;\n   \n      uint16 teamSelected;\n    }\n// The address of the player and => the user info\n   mapping(address => Player) public playerInfo;\n   function() external payable {}\n   \n  constructor() public {\n      owner = msg.sender;\n      minimumBet = 100000000000000;\n    }\n\n    function kill() public {\n      if(msg.sender == owner) selfdestruct(owner);\n    }\n    \n    function checkPlayerExists(address payable player) public view returns(bool){\n        for(uint256 i = 0; i < players.length; i++){\n            if(players[i] == player) return true;\n        }\n        return false;\n    }\n\n    function bet(uint8 _teamSelected) public payable {\n      //The first require is used to check if the player already exist\n      require(!checkPlayerExists(msg.sender));\n\n      //The second one is used to see if the value sended by the player is\n      //Higher than the minimum value\n      require(msg.value >= minimumBet);\n\n      //We set the player informations : amount of the bet and selected team\n      playerInfo[msg.sender].amountBet = msg.value;\n      playerInfo[msg.sender].teamSelected = _teamSelected;\n\n      //then we add the address of the player to the players array\n      players.push(msg.sender);\n\n      //at the end, we increment the stakes of the team selected with the player bet\n      if ( _teamSelected == 1){\n          totalBetsOne += msg.value;\n      }\n      else{\n          totalBetsTwo += msg.value;\n      }\n    }\n    // Generates a number between 1 and 10 that will be the winner\n    function distributePrizes(uint16 teamWinner) public {\n      address payable[1000] memory winners;\n      //We have to create a temporary in memory array with fixed size\n      //Let's choose 1000\n      uint256 count = 0; // This is the count for the array of winners\n      uint256 LoserBet = 0; //This will take the value of all losers bet\n      uint256 WinnerBet = 0; //This will take the value of all winners bet\n      address add;\n      uint256 bet;\n      address payable playerAddress;\n      \n      //We loop through the player array to check who selected the winner team\n      for(uint256 i = 0; i < players.length; i++){\n         playerAddress = players[i];\n          //If the player selected the winner team\n         //We add his address to the winners array\n         if(playerInfo[playerAddress].teamSelected == teamWinner){\n            winners[count] = playerAddress;\n            count++;\n         }\n      }\n\n      //We define which bet sum is the Loser one and which one is the winner\n      if ( teamWinner == 1){\n         LoserBet = totalBetsTwo;\n         WinnerBet = totalBetsOne;\n      }\n      else{\n          LoserBet = totalBetsOne;\n          WinnerBet = totalBetsTwo;\n      }\n\n      //We loop through the array of winners, to give ethers to the winners\n      for(uint256 j = 0; j < count; j++){\n          // Check that the address in this fixed array is not empty\n         if(winners[j] != address(0))\n            add = winners[j];\n            bet = playerInfo[add].amountBet;\n            //Transfer the money to the user\n            winners[j].transfer(    (bet*(10000+(LoserBet*10000/WinnerBet)))/10000 );\n      }\n      \n      delete playerInfo[playerAddress]; // Delete all the players\n      players.length = 0; // Delete all the players array\n      LoserBet = 0; //reinitialize the bets\n      WinnerBet = 0;\n      totalBetsOne = 0;\n      totalBetsTwo = 0;\n    }\n\n    function getAmountOfBetOne() public view returns(uint256){\n       return totalBetsOne;\n    }\n\n    function getAmountOfBetTwo() public view returns(uint256){\n       return totalBetsTwo;\n    }\n}",
  "sourcePath": "/home/kyle/myfiles/eth/SportsBettingContracts/contracts/Betting.sol",
  "compiler": {
    "name": "solc",
    "version": "0.5.16+commit.9c3226ce.Emscripten.clang"
  },
  "schemaVersion": "3.2.5",
  "updatedAt": "2020-09-13T14:55:55.355Z",
  "networkType": "ethereum",
  "devdoc": {
    "methods": {}
  },
  "userdoc": {
    "methods": {}
  }
}